S00C0000726669642E7372656373
S113000045C0000060C000005EC000005CC000008D
S11300105AC0000058C0000056C0000054C0000080
S113002052C0000050C000004EC000004CC0000090
S11300304AC0000048C0000046C0000044C00000A0
S113004042C0000040C000003EC000003CC00000B0
S11300503AC0000038C0000036C0000034C00000C0
S113006032C0000030C000002EC000002CC00000D0
S11300702AC0000028C0000026C0000024C00000E0
S113008022C0000020C000001EC0000011241FBEBA
S1130090CFEFD0E1DEBFCDBF12E0A0E0B1E0EEEBE8
S11300A0F5E000E00BBF02C007900D92A230B1074B
S11300B0D9F722E0A2E0B2E001C01D92AE30B2074F
S11300C0E1F7ACD17AC29CCFE2E6F0E080818061B6
S11300D080830000000080818F7E8083089517BA9A
S11300E0E2E6F0E080818B7F80838081886080837A
S11300F0C79B03C0E9DFC799FDCF8FEF87BB089586
S1130100CF93C82FECDFC8BBE2E6F0E080818460C7
S113011080838081877F8083D7DF18BA8FE396E05E
S11301200197F1F700C00000CF910895CF93C82F35
S1130130D6DFC8BBE2E6F0E080818B7F80838081DC
S1130140877F8083C1DF18BA8FE396E00197F1F7C8
S113015000C00000CF910895CF93DF93EC01888114
S1130160882329F02196CCDF89918111FCCFDF917E
S1130170CF9108958FE295E70197F1F700C0000051
S1130180E1E6F0E080818C6180839FEF20E782E0EC
S1130190915020408040E1F700C0000081E0C6DFBC
S11301A088E3C4DF8FE19EE40197F1F700C000000B
S11301B088E3BCDF8FE19EE40197F1F700C0000003
S11301C088E3B4DF8FE19EE40197F1F700C00000FB
S11301D08EE0ACCF08956230710519F48154A6CF36
S11301E008956130710511F48158A0CF0895FB0181
S11301F0E40FF51FDC0120E030E081918D932F5F47
S11302003F4F2C303105C9F70895FC013081FB01C3
S1130210208132130FC0DC011196319621E030E0C9
S11302209D918191981309C02F5F3F4F2C30310568
S1130230B9F706C081E090E0089581E090E0089568
S113024080E090E00895CF92DF92EF92FF920F93B7
S11302501F93CF93DF93CDB7DEB7C854D1090FB640
S1130260F894DEBF0FBECDBF8CE3E0E0F1E0DE0129
S1130270119601900D928A95E1F781E057DF40E0F5
S113028050E0BE016F5F7F4FCE01CD96B0DFBE015F
S1130290635C7F4F82E092E0B8DF0CE010E0C12C99
S11302A0D12C18C0A801BE016F5F7F4FCE01CD963F
S11302B09EDFBE01635C7F4F82E092E0A6DF045FB5
S11302C01F4F24E0E216F10421F4892B09F48EC0B7
S11302D092C0670176012FEFE21AF20A892B11F717
S11302E081E024DF81E0E81AF10892E0E916F104E4
S11302F009F437C03CF4E114F10489F0EA94EF28DE
S1130300F9F06AC094E0E916F10409F44CC00CF465
S113031039C085E0E816F10409F456C05DC061E017
S113032070E081E090E057DF8CE391E015DF62E05C
S113033070E081E090E04FDF87E491E00DDF4CC096
S113034061E070E081E090E046DF8EE491E004DF5C
S113035062E070E081E090E03EDF8AE591E0FCDE5F
S11303603BC061E070E081E090E035DF81E691E040
S1130370F3DE62E070E081E090E02DDF80E791E061
S1130380EBDE2AC061E070E081E090E024DF87E7E3
S113039091E0E2DE62E070E081E090E01CDF8BE758
S11303A091E0DADE19C061E070E081E090E013DFF3
S11303B082E891E0D1DE62E070E081E090E00BDF62
S11303C086E891E0C9DE08C062E070E081E090E078
S11303D002DF8DE891E0C0DE9FEF27EA81E69150CD
S11303E020408040E1F700C0000008C0760192E0A0
S11303F0E90EF11C75CF81E099DED5CFC85BDF4FE4
S11304000FB6F894DEBF0FBECDBFDF91CF911F9121
S11304100F91FF90EF90DF90CF900895CF93DF93EB
S1130420CDB7DEB72C970FB6F894DEBF0FBECDBFA5
S1130430A1DE61E083E390E08DD081E077DE61E0CE
S113044070E081E090E0C7DE8AE991E085DE62E059
S113045070E081E090E0BFDE8BEA91E07DDE2FEF7B
S113046083ED90E3215080409040E1F700C000000C
S113047081E05CDE61E070E081E090E0ACDE8CEB7A
S113048091E06ADE62E070E081E090E0A4DE8CEC52
S113049091E062DEEFEFF3ED20E3E150F040204025
S11304A0E1F700C000000F2EFAE9CF2ED12CF02D79
S11304B07E018DE0E80EF11C81E038DE61E070E041
S11304C081E090E088DE89ED91E046DE62E070E054
S11304D081E090E080DE8AEE91E03EDEF6018081EC
S11304E08061808380818F7E80838081806180832E
S11304F08E010F5F1F4F81E04BD0F80181938F0174
S1130500EE15FF05C1F7F60180818F7E808381E0BF
S11305100DDE61E070E081E090E05DDE84EF91E06B
S11305201BDE62E070E081E090E055DECE010196D2
S113053013DEBE016F5F7F4F82E092E037D0FFEFA2
S113054023ED80E3F15020408040E1F700C000003B
S11305507ADEB2CF7894662379F0909398008093F2
S11305609900EAE9F0E0808188618083EDE9F0E0B8
S113057080818660808308959093900089B98AB1C0
S113058088618AB9E5E9F0E0808186608083089516
S1130590882341F0EBE9F0E080818823ECF7809137
S11305A09C0008955F9BFECF8CB10895FB01DC0194
S11105B001900D920020E1F70895F894FFCF1A
S11305BE0A363530303333423932450D0A3635304A
S11305CE303234343734430D0A3635303032343326
S11305DE3630420D0A363530303234353735440D27
S11305EE0A363530303234324431440D48656C6C41
S11305FE6F204D6565740063617264203100486537
S113060E6C6C6F204468727576006361726420327C
S113061E0048656C6C6F2073696464617274680061
S113062E6361726420330058595A00636172642006
S113063E34004142430063617264203500696E7672
S113064E616C6964206361726400202A2A2A2A205C
S113065E48454C4C4F202A2A2A2A00524649442007
S113066E4341524420524541444552004D414B456D
S113067E525350414345203230313700202A2A57F5
S113068E454C434F4D452A2A00506C6561736520D5
S113069E506C61636520746865005246494420635A
S11306AE6172640043415244204944206973203AE4
S10506BE2D0009
S9030000FC
